{
  "_format": "hh-sol-artifact-1",
  "contractName": "NFT",
  "sourceName": "contracts/NFT.sol",
  "abi": [
    {
      "inputs": [],
      "stateMutability": "nonpayable",
      "type": "constructor"
    },
    {
      "anonymous": false,
      "inputs": [
        {
          "indexed": true,
          "internalType": "address",
          "name": "owner",
          "type": "address"
        },
        {
          "indexed": true,
          "internalType": "address",
          "name": "approved",
          "type": "address"
        },
        {
          "indexed": true,
          "internalType": "uint256",
          "name": "tokenId",
          "type": "uint256"
        }
      ],
      "name": "Approval",
      "type": "event"
    },
    {
      "anonymous": false,
      "inputs": [
        {
          "indexed": true,
          "internalType": "address",
          "name": "owner",
          "type": "address"
        },
        {
          "indexed": true,
          "internalType": "address",
          "name": "operator",
          "type": "address"
        },
        {
          "indexed": false,
          "internalType": "bool",
          "name": "approved",
          "type": "bool"
        }
      ],
      "name": "ApprovalForAll",
      "type": "event"
    },
    {
      "anonymous": false,
      "inputs": [
        {
          "indexed": true,
          "internalType": "address",
          "name": "previousOwner",
          "type": "address"
        },
        {
          "indexed": true,
          "internalType": "address",
          "name": "newOwner",
          "type": "address"
        }
      ],
      "name": "OwnershipTransferred",
      "type": "event"
    },
    {
      "anonymous": false,
      "inputs": [
        {
          "indexed": true,
          "internalType": "address",
          "name": "from",
          "type": "address"
        },
        {
          "indexed": true,
          "internalType": "address",
          "name": "to",
          "type": "address"
        },
        {
          "indexed": true,
          "internalType": "uint256",
          "name": "tokenId",
          "type": "uint256"
        }
      ],
      "name": "Transfer",
      "type": "event"
    },
    {
      "inputs": [],
      "name": "MINT_PRICE",
      "outputs": [
        {
          "internalType": "uint256",
          "name": "",
          "type": "uint256"
        }
      ],
      "stateMutability": "view",
      "type": "function"
    },
    {
      "inputs": [],
      "name": "TOTAL_SUPPLY",
      "outputs": [
        {
          "internalType": "uint256",
          "name": "",
          "type": "uint256"
        }
      ],
      "stateMutability": "view",
      "type": "function"
    },
    {
      "inputs": [
        {
          "internalType": "address",
          "name": "to",
          "type": "address"
        },
        {
          "internalType": "uint256",
          "name": "tokenId",
          "type": "uint256"
        }
      ],
      "name": "approve",
      "outputs": [],
      "stateMutability": "nonpayable",
      "type": "function"
    },
    {
      "inputs": [
        {
          "internalType": "address",
          "name": "owner",
          "type": "address"
        }
      ],
      "name": "balanceOf",
      "outputs": [
        {
          "internalType": "uint256",
          "name": "",
          "type": "uint256"
        }
      ],
      "stateMutability": "view",
      "type": "function"
    },
    {
      "inputs": [],
      "name": "baseTokenURI",
      "outputs": [
        {
          "internalType": "string",
          "name": "",
          "type": "string"
        }
      ],
      "stateMutability": "view",
      "type": "function"
    },
    {
      "inputs": [
        {
          "internalType": "uint256",
          "name": "tokenId",
          "type": "uint256"
        }
      ],
      "name": "getApproved",
      "outputs": [
        {
          "internalType": "address",
          "name": "",
          "type": "address"
        }
      ],
      "stateMutability": "view",
      "type": "function"
    },
    {
      "inputs": [
        {
          "internalType": "address",
          "name": "owner",
          "type": "address"
        },
        {
          "internalType": "address",
          "name": "operator",
          "type": "address"
        }
      ],
      "name": "isApprovedForAll",
      "outputs": [
        {
          "internalType": "bool",
          "name": "",
          "type": "bool"
        }
      ],
      "stateMutability": "view",
      "type": "function"
    },
    {
      "inputs": [
        {
          "internalType": "address",
          "name": "recipient",
          "type": "address"
        }
      ],
      "name": "mintTo",
      "outputs": [
        {
          "internalType": "uint256",
          "name": "",
          "type": "uint256"
        }
      ],
      "stateMutability": "payable",
      "type": "function"
    },
    {
      "inputs": [],
      "name": "name",
      "outputs": [
        {
          "internalType": "string",
          "name": "",
          "type": "string"
        }
      ],
      "stateMutability": "view",
      "type": "function"
    },
    {
      "inputs": [],
      "name": "owner",
      "outputs": [
        {
          "internalType": "address",
          "name": "",
          "type": "address"
        }
      ],
      "stateMutability": "view",
      "type": "function"
    },
    {
      "inputs": [
        {
          "internalType": "uint256",
          "name": "tokenId",
          "type": "uint256"
        }
      ],
      "name": "ownerOf",
      "outputs": [
        {
          "internalType": "address",
          "name": "",
          "type": "address"
        }
      ],
      "stateMutability": "view",
      "type": "function"
    },
    {
      "inputs": [
        {
          "internalType": "address",
          "name": "dest",
          "type": "address"
        }
      ],
      "name": "payments",
      "outputs": [
        {
          "internalType": "uint256",
          "name": "",
          "type": "uint256"
        }
      ],
      "stateMutability": "view",
      "type": "function"
    },
    {
      "inputs": [],
      "name": "renounceOwnership",
      "outputs": [],
      "stateMutability": "nonpayable",
      "type": "function"
    },
    {
      "inputs": [
        {
          "internalType": "address",
          "name": "from",
          "type": "address"
        },
        {
          "internalType": "address",
          "name": "to",
          "type": "address"
        },
        {
          "internalType": "uint256",
          "name": "tokenId",
          "type": "uint256"
        }
      ],
      "name": "safeTransferFrom",
      "outputs": [],
      "stateMutability": "nonpayable",
      "type": "function"
    },
    {
      "inputs": [
        {
          "internalType": "address",
          "name": "from",
          "type": "address"
        },
        {
          "internalType": "address",
          "name": "to",
          "type": "address"
        },
        {
          "internalType": "uint256",
          "name": "tokenId",
          "type": "uint256"
        },
        {
          "internalType": "bytes",
          "name": "data",
          "type": "bytes"
        }
      ],
      "name": "safeTransferFrom",
      "outputs": [],
      "stateMutability": "nonpayable",
      "type": "function"
    },
    {
      "inputs": [
        {
          "internalType": "address",
          "name": "operator",
          "type": "address"
        },
        {
          "internalType": "bool",
          "name": "approved",
          "type": "bool"
        }
      ],
      "name": "setApprovalForAll",
      "outputs": [],
      "stateMutability": "nonpayable",
      "type": "function"
    },
    {
      "inputs": [
        {
          "internalType": "string",
          "name": "_baseTokenURI",
          "type": "string"
        }
      ],
      "name": "setBaseTokenURI",
      "outputs": [],
      "stateMutability": "nonpayable",
      "type": "function"
    },
    {
      "inputs": [
        {
          "internalType": "bytes4",
          "name": "interfaceId",
          "type": "bytes4"
        }
      ],
      "name": "supportsInterface",
      "outputs": [
        {
          "internalType": "bool",
          "name": "",
          "type": "bool"
        }
      ],
      "stateMutability": "view",
      "type": "function"
    },
    {
      "inputs": [],
      "name": "symbol",
      "outputs": [
        {
          "internalType": "string",
          "name": "",
          "type": "string"
        }
      ],
      "stateMutability": "view",
      "type": "function"
    },
    {
      "inputs": [
        {
          "internalType": "uint256",
          "name": "tokenId",
          "type": "uint256"
        }
      ],
      "name": "tokenURI",
      "outputs": [
        {
          "internalType": "string",
          "name": "",
          "type": "string"
        }
      ],
      "stateMutability": "view",
      "type": "function"
    },
    {
      "inputs": [
        {
          "internalType": "address",
          "name": "from",
          "type": "address"
        },
        {
          "internalType": "address",
          "name": "to",
          "type": "address"
        },
        {
          "internalType": "uint256",
          "name": "tokenId",
          "type": "uint256"
        }
      ],
      "name": "transferFrom",
      "outputs": [],
      "stateMutability": "nonpayable",
      "type": "function"
    },
    {
      "inputs": [
        {
          "internalType": "address",
          "name": "newOwner",
          "type": "address"
        }
      ],
      "name": "transferOwnership",
      "outputs": [],
      "stateMutability": "nonpayable",
      "type": "function"
    },
    {
      "inputs": [
        {
          "internalType": "address payable",
          "name": "payee",
          "type": "address"
        }
      ],
      "name": "withdrawPayments",
      "outputs": [],
      "stateMutability": "nonpayable",
      "type": "function"
    }
  ],
  "bytecode": "0x60a06040523480156200001157600080fd5b506040518060400160405280600b81526020017f4e46545475746f7269616c0000000000000000000000000000000000000000008152506040518060400160405280600381526020017f4e4654000000000000000000000000000000000000000000000000000000000081525081600090816200008f9190620004a0565b508060019081620000a19190620004a0565b505050604051620000b29062000218565b604051809103906000f080158015620000cf573d6000803e3d6000fd5b5073ffffffffffffffffffffffffffffffffffffffff1660808173ffffffffffffffffffffffffffffffffffffffff168152505062000123620001176200014a60201b60201c565b6200015260201b60201c565b6040518060200160405280600081525060089081620001439190620004a0565b5062000587565b600033905090565b6000600660009054906101000a900473ffffffffffffffffffffffffffffffffffffffff16905081600660006101000a81548173ffffffffffffffffffffffffffffffffffffffff021916908373ffffffffffffffffffffffffffffffffffffffff1602179055508173ffffffffffffffffffffffffffffffffffffffff168173ffffffffffffffffffffffffffffffffffffffff167f8be0079c531659141344cd1fd0a4f28419497f9722a3daafe3b4186f6b6457e060405160405180910390a35050565b610ba1806200389d83390190565b600081519050919050565b7f4e487b7100000000000000000000000000000000000000000000000000000000600052604160045260246000fd5b7f4e487b7100000000000000000000000000000000000000000000000000000000600052602260045260246000fd5b60006002820490506001821680620002a857607f821691505b602082108103620002be57620002bd62000260565b5b50919050565b60008190508160005260206000209050919050565b60006020601f8301049050919050565b600082821b905092915050565b600060088302620003287fffffffffffffffffffffffffffffffffffffffffffffffffffffffffffffffff82620002e9565b620003348683620002e9565b95508019841693508086168417925050509392505050565b6000819050919050565b6000819050919050565b6000620003816200037b62000375846200034c565b62000356565b6200034c565b9050919050565b6000819050919050565b6200039d8362000360565b620003b5620003ac8262000388565b848454620002f6565b825550505050565b600090565b620003cc620003bd565b620003d981848462000392565b505050565b5b818110156200040157620003f5600082620003c2565b600181019050620003df565b5050565b601f82111562000450576200041a81620002c4565b6200042584620002d9565b8101602085101562000435578190505b6200044d6200044485620002d9565b830182620003de565b50505b505050565b600082821c905092915050565b6000620004756000198460080262000455565b1980831691505092915050565b600062000490838362000462565b9150826002028217905092915050565b620004ab8262000226565b67ffffffffffffffff811115620004c757620004c662000231565b5b620004d382546200028f565b620004e082828562000405565b600060209050601f83116001811462000518576000841562000503578287015190505b6200050f858262000482565b8655506200057f565b601f1984166200052886620002c4565b60005b8281101562000552578489015182556001820191506020850194506020810190506200052b565b868310156200057257848901516200056e601f89168262000462565b8355505b6001600288020188555050505b505050505050565b6080516132f3620005aa60003960008181610d53015261148d01526132f36000f3fe6080604052600436106101405760003560e01c8063755edd17116100b6578063c002d23d1161006f578063c002d23d1461044b578063c87b56dd14610476578063d547cfb7146104b3578063e2982c21146104de578063e985e9c51461051b578063f2fde38b1461055857610140565b8063755edd17146103485780638da5cb5b14610378578063902d55a5146103a357806395d89b41146103ce578063a22cb465146103f9578063b88d4fde1461042257610140565b806330176e131161010857806330176e131461023c57806331b3eb941461026557806342842e0e1461028e5780636352211e146102b757806370a08231146102f4578063715018a61461033157610140565b806301ffc9a71461014557806306fdde0314610182578063081812fc146101ad578063095ea7b3146101ea57806323b872dd14610213575b600080fd5b34801561015157600080fd5b5061016c60048036038101906101679190611fb4565b610581565b6040516101799190611ffc565b60405180910390f35b34801561018e57600080fd5b50610197610663565b6040516101a491906120a7565b60405180910390f35b3480156101b957600080fd5b506101d460048036038101906101cf91906120ff565b6106f5565b6040516101e1919061216d565b60405180910390f35b3480156101f657600080fd5b50610211600480360381019061020c91906121b4565b61073b565b005b34801561021f57600080fd5b5061023a600480360381019061023591906121f4565b610852565b005b34801561024857600080fd5b50610263600480360381019061025e919061237c565b6108b2565b005b34801561027157600080fd5b5061028c60048036038101906102879190612403565b6108c5565b005b34801561029a57600080fd5b506102b560048036038101906102b091906121f4565b6108d9565b005b3480156102c357600080fd5b506102de60048036038101906102d991906120ff565b6108f9565b6040516102eb919061216d565b60405180910390f35b34801561030057600080fd5b5061031b60048036038101906103169190612430565b61097f565b604051610328919061246c565b60405180910390f35b34801561033d57600080fd5b50610346610a36565b005b610362600480360381019061035d9190612430565b610a4a565b60405161036f919061246c565b60405180910390f35b34801561038457600080fd5b5061038d610b13565b60405161039a919061216d565b60405180910390f35b3480156103af57600080fd5b506103b8610b3d565b6040516103c5919061246c565b60405180910390f35b3480156103da57600080fd5b506103e3610b43565b6040516103f091906120a7565b60405180910390f35b34801561040557600080fd5b50610420600480360381019061041b91906124b3565b610bd5565b005b34801561042e57600080fd5b5061044960048036038101906104449190612594565b610beb565b005b34801561045757600080fd5b50610460610c4d565b60405161046d919061246c565b60405180910390f35b34801561048257600080fd5b5061049d600480360381019061049891906120ff565b610c59565b6040516104aa91906120a7565b60405180910390f35b3480156104bf57600080fd5b506104c8610cc1565b6040516104d591906120a7565b60405180910390f35b3480156104ea57600080fd5b5061050560048036038101906105009190612430565b610d4f565b604051610512919061246c565b60405180910390f35b34801561052757600080fd5b50610542600480360381019061053d9190612617565b610df2565b60405161054f9190611ffc565b60405180910390f35b34801561056457600080fd5b5061057f600480360381019061057a9190612430565b610e86565b005b60007f80ac58cd000000000000000000000000000000000000000000000000000000007bffffffffffffffffffffffffffffffffffffffffffffffffffffffff1916827bffffffffffffffffffffffffffffffffffffffffffffffffffffffff1916148061064c57507f5b5e139f000000000000000000000000000000000000000000000000000000007bffffffffffffffffffffffffffffffffffffffffffffffffffffffff1916827bffffffffffffffffffffffffffffffffffffffffffffffffffffffff1916145b8061065c575061065b82610f09565b5b9050919050565b60606000805461067290612686565b80601f016020809104026020016040519081016040528092919081815260200182805461069e90612686565b80156106eb5780601f106106c0576101008083540402835291602001916106eb565b820191906000526020600020905b8154815290600101906020018083116106ce57829003601f168201915b5050505050905090565b600061070082610f73565b6004600083815260200190815260200160002060009054906101000a900473ffffffffffffffffffffffffffffffffffffffff169050919050565b6000610746826108f9565b90508073ffffffffffffffffffffffffffffffffffffffff168373ffffffffffffffffffffffffffffffffffffffff16036107b6576040517f08c379a00000000000000000000000000000000000000000000000000000000081526004016107ad90612729565b60405180910390fd5b8073ffffffffffffffffffffffffffffffffffffffff166107d5610fbe565b73ffffffffffffffffffffffffffffffffffffffff1614806108045750610803816107fe610fbe565b610df2565b5b610843576040517f08c379a000000000000000000000000000000000000000000000000000000000815260040161083a906127bb565b60405180910390fd5b61084d8383610fc6565b505050565b61086361085d610fbe565b8261107f565b6108a2576040517f08c379a00000000000000000000000000000000000000000000000000000000081526004016108999061284d565b60405180910390fd5b6108ad838383611114565b505050565b80600890816108c19190612a19565b5050565b6108cd61140d565b6108d68161148b565b50565b6108f483838360405180602001604052806000815250610beb565b505050565b60008061090583611519565b9050600073ffffffffffffffffffffffffffffffffffffffff168173ffffffffffffffffffffffffffffffffffffffff1603610976576040517f08c379a000000000000000000000000000000000000000000000000000000000815260040161096d90612b37565b60405180910390fd5b80915050919050565b60008073ffffffffffffffffffffffffffffffffffffffff168273ffffffffffffffffffffffffffffffffffffffff16036109ef576040517f08c379a00000000000000000000000000000000000000000000000000000000081526004016109e690612bc9565b60405180910390fd5b600360008373ffffffffffffffffffffffffffffffffffffffff1673ffffffffffffffffffffffffffffffffffffffff168152602001908152602001600020549050919050565b610a3e61140d565b610a486000611556565b565b600080610a57600761161c565b90506127108110610a9d576040517f08c379a0000000000000000000000000000000000000000000000000000000008152600401610a9490612c35565b60405180910390fd5b67011c37937e0800003414610ae7576040517f08c379a0000000000000000000000000000000000000000000000000000000008152600401610ade90612cc7565b60405180910390fd5b610af1600761162a565b6000610afd600761161c565b9050610b098482611640565b8092505050919050565b6000600660009054906101000a900473ffffffffffffffffffffffffffffffffffffffff16905090565b61271081565b606060018054610b5290612686565b80601f0160208091040260200160405190810160405280929190818152602001828054610b7e90612686565b8015610bcb5780601f10610ba057610100808354040283529160200191610bcb565b820191906000526020600020905b815481529060010190602001808311610bae57829003601f168201915b5050505050905090565b610be7610be0610fbe565b838361165e565b5050565b610bfc610bf6610fbe565b8361107f565b610c3b576040517f08c379a0000000000000000000000000000000000000000000000000000000008152600401610c329061284d565b60405180910390fd5b610c47848484846117ca565b50505050565b67011c37937e08000081565b6060610c6482610f73565b6000610c6e611826565b90506000815111610c8e5760405180602001604052806000815250610cb9565b80610c98846118b8565b604051602001610ca9929190612d23565b6040516020818303038152906040525b915050919050565b60088054610cce90612686565b80601f0160208091040260200160405190810160405280929190818152602001828054610cfa90612686565b8015610d475780601f10610d1c57610100808354040283529160200191610d47565b820191906000526020600020905b815481529060010190602001808311610d2a57829003601f168201915b505050505081565b60007f000000000000000000000000000000000000000000000000000000000000000073ffffffffffffffffffffffffffffffffffffffff1663e3a9db1a836040518263ffffffff1660e01b8152600401610daa919061216d565b602060405180830381865afa158015610dc7573d6000803e3d6000fd5b505050506040513d601f19601f82011682018060405250810190610deb9190612d5c565b9050919050565b6000600560008473ffffffffffffffffffffffffffffffffffffffff1673ffffffffffffffffffffffffffffffffffffffff16815260200190815260200160002060008373ffffffffffffffffffffffffffffffffffffffff1673ffffffffffffffffffffffffffffffffffffffff16815260200190815260200160002060009054906101000a900460ff16905092915050565b610e8e61140d565b600073ffffffffffffffffffffffffffffffffffffffff168173ffffffffffffffffffffffffffffffffffffffff1603610efd576040517f08c379a0000000000000000000000000000000000000000000000000000000008152600401610ef490612dfb565b60405180910390fd5b610f0681611556565b50565b60007f01ffc9a7000000000000000000000000000000000000000000000000000000007bffffffffffffffffffffffffffffffffffffffffffffffffffffffff1916827bffffffffffffffffffffffffffffffffffffffffffffffffffffffff1916149050919050565b610f7c81611986565b610fbb576040517f08c379a0000000000000000000000000000000000000000000000000000000008152600401610fb290612b37565b60405180910390fd5b50565b600033905090565b816004600083815260200190815260200160002060006101000a81548173ffffffffffffffffffffffffffffffffffffffff021916908373ffffffffffffffffffffffffffffffffffffffff160217905550808273ffffffffffffffffffffffffffffffffffffffff16611039836108f9565b73ffffffffffffffffffffffffffffffffffffffff167f8c5be1e5ebec7d5bd14f71427d1e84f3dd0314c0f7b2291e5b200ac8c7c3b92560405160405180910390a45050565b60008061108b836108f9565b90508073ffffffffffffffffffffffffffffffffffffffff168473ffffffffffffffffffffffffffffffffffffffff1614806110cd57506110cc8185610df2565b5b8061110b57508373ffffffffffffffffffffffffffffffffffffffff166110f3846106f5565b73ffffffffffffffffffffffffffffffffffffffff16145b91505092915050565b8273ffffffffffffffffffffffffffffffffffffffff16611134826108f9565b73ffffffffffffffffffffffffffffffffffffffff161461118a576040517f08c379a000000000000000000000000000000000000000000000000000000000815260040161118190612e8d565b60405180910390fd5b600073ffffffffffffffffffffffffffffffffffffffff168273ffffffffffffffffffffffffffffffffffffffff16036111f9576040517f08c379a00000000000000000000000000000000000000000000000000000000081526004016111f090612f1f565b60405180910390fd5b61120683838360016119c7565b8273ffffffffffffffffffffffffffffffffffffffff16611226826108f9565b73ffffffffffffffffffffffffffffffffffffffff161461127c576040517f08c379a000000000000000000000000000000000000000000000000000000000815260040161127390612e8d565b60405180910390fd5b6004600082815260200190815260200160002060006101000a81549073ffffffffffffffffffffffffffffffffffffffff02191690556001600360008573ffffffffffffffffffffffffffffffffffffffff1673ffffffffffffffffffffffffffffffffffffffff168152602001908152602001600020600082825403925050819055506001600360008473ffffffffffffffffffffffffffffffffffffffff1673ffffffffffffffffffffffffffffffffffffffff16815260200190815260200160002060008282540192505081905550816002600083815260200190815260200160002060006101000a81548173ffffffffffffffffffffffffffffffffffffffff021916908373ffffffffffffffffffffffffffffffffffffffff160217905550808273ffffffffffffffffffffffffffffffffffffffff168473ffffffffffffffffffffffffffffffffffffffff167fddf252ad1be2c89b69c2b068fc378daa952ba7f163c4a11628f55a4df523b3ef60405160405180910390a461140883838360016119cd565b505050565b611415610fbe565b73ffffffffffffffffffffffffffffffffffffffff16611433610b13565b73ffffffffffffffffffffffffffffffffffffffff1614611489576040517f08c379a000000000000000000000000000000000000000000000000000000000815260040161148090612f8b565b60405180910390fd5b565b7f000000000000000000000000000000000000000000000000000000000000000073ffffffffffffffffffffffffffffffffffffffff166351cff8d9826040518263ffffffff1660e01b81526004016114e49190612fba565b600060405180830381600087803b1580156114fe57600080fd5b505af1158015611512573d6000803e3d6000fd5b5050505050565b60006002600083815260200190815260200160002060009054906101000a900473ffffffffffffffffffffffffffffffffffffffff169050919050565b6000600660009054906101000a900473ffffffffffffffffffffffffffffffffffffffff16905081600660006101000a81548173ffffffffffffffffffffffffffffffffffffffff021916908373ffffffffffffffffffffffffffffffffffffffff1602179055508173ffffffffffffffffffffffffffffffffffffffff168173ffffffffffffffffffffffffffffffffffffffff167f8be0079c531659141344cd1fd0a4f28419497f9722a3daafe3b4186f6b6457e060405160405180910390a35050565b600081600001549050919050565b6001816000016000828254019250508190555050565b61165a8282604051806020016040528060008152506119d3565b5050565b8173ffffffffffffffffffffffffffffffffffffffff168373ffffffffffffffffffffffffffffffffffffffff16036116cc576040517f08c379a00000000000000000000000000000000000000000000000000000000081526004016116c390613021565b60405180910390fd5b80600560008573ffffffffffffffffffffffffffffffffffffffff1673ffffffffffffffffffffffffffffffffffffffff16815260200190815260200160002060008473ffffffffffffffffffffffffffffffffffffffff1673ffffffffffffffffffffffffffffffffffffffff16815260200190815260200160002060006101000a81548160ff0219169083151502179055508173ffffffffffffffffffffffffffffffffffffffff168373ffffffffffffffffffffffffffffffffffffffff167f17307eab39ab6107e8899845ad3d59bd9653f200f220920489ca2b5937696c31836040516117bd9190611ffc565b60405180910390a3505050565b6117d5848484611114565b6117e184848484611a2e565b611820576040517f08c379a0000000000000000000000000000000000000000000000000000000008152600401611817906130b3565b60405180910390fd5b50505050565b60606008805461183590612686565b80601f016020809104026020016040519081016040528092919081815260200182805461186190612686565b80156118ae5780601f10611883576101008083540402835291602001916118ae565b820191906000526020600020905b81548152906001019060200180831161189157829003601f168201915b5050505050905090565b6060600060016118c784611bb5565b01905060008167ffffffffffffffff8111156118e6576118e5612251565b5b6040519080825280601f01601f1916602001820160405280156119185781602001600182028036833780820191505090505b509050600082602001820190505b60011561197b578080600190039150507f3031323334353637383961626364656600000000000000000000000000000000600a86061a8153600a858161196f5761196e6130d3565b5b04945060008503611926575b819350505050919050565b60008073ffffffffffffffffffffffffffffffffffffffff166119a883611519565b73ffffffffffffffffffffffffffffffffffffffff1614159050919050565b50505050565b50505050565b6119dd8383611d08565b6119ea6000848484611a2e565b611a29576040517f08c379a0000000000000000000000000000000000000000000000000000000008152600401611a20906130b3565b60405180910390fd5b505050565b6000611a4f8473ffffffffffffffffffffffffffffffffffffffff16611f25565b15611ba8578373ffffffffffffffffffffffffffffffffffffffff1663150b7a02611a78610fbe565b8786866040518563ffffffff1660e01b8152600401611a9a9493929190613157565b6020604051808303816000875af1925050508015611ad657506040513d601f19601f82011682018060405250810190611ad391906131b8565b60015b611b58573d8060008114611b06576040519150601f19603f3d011682016040523d82523d6000602084013e611b0b565b606091505b506000815103611b50576040517f08c379a0000000000000000000000000000000000000000000000000000000008152600401611b47906130b3565b60405180910390fd5b805181602001fd5b63150b7a0260e01b7bffffffffffffffffffffffffffffffffffffffffffffffffffffffff1916817bffffffffffffffffffffffffffffffffffffffffffffffffffffffff191614915050611bad565b600190505b949350505050565b600080600090507a184f03e93ff9f4daa797ed6e38ed64bf6a1f0100000000000000008310611c13577a184f03e93ff9f4daa797ed6e38ed64bf6a1f0100000000000000008381611c0957611c086130d3565b5b0492506040810190505b6d04ee2d6d415b85acef81000000008310611c50576d04ee2d6d415b85acef81000000008381611c4657611c456130d3565b5b0492506020810190505b662386f26fc100008310611c7f57662386f26fc100008381611c7557611c746130d3565b5b0492506010810190505b6305f5e1008310611ca8576305f5e1008381611c9e57611c9d6130d3565b5b0492506008810190505b6127108310611ccd576127108381611cc357611cc26130d3565b5b0492506004810190505b60648310611cf05760648381611ce657611ce56130d3565b5b0492506002810190505b600a8310611cff576001810190505b80915050919050565b600073ffffffffffffffffffffffffffffffffffffffff168273ffffffffffffffffffffffffffffffffffffffff1603611d77576040517f08c379a0000000000000000000000000000000000000000000000000000000008152600401611d6e90613231565b60405180910390fd5b611d8081611986565b15611dc0576040517f08c379a0000000000000000000000000000000000000000000000000000000008152600401611db79061329d565b60405180910390fd5b611dce6000838360016119c7565b611dd781611986565b15611e17576040517f08c379a0000000000000000000000000000000000000000000000000000000008152600401611e0e9061329d565b60405180910390fd5b6001600360008473ffffffffffffffffffffffffffffffffffffffff1673ffffffffffffffffffffffffffffffffffffffff16815260200190815260200160002060008282540192505081905550816002600083815260200190815260200160002060006101000a81548173ffffffffffffffffffffffffffffffffffffffff021916908373ffffffffffffffffffffffffffffffffffffffff160217905550808273ffffffffffffffffffffffffffffffffffffffff16600073ffffffffffffffffffffffffffffffffffffffff167fddf252ad1be2c89b69c2b068fc378daa952ba7f163c4a11628f55a4df523b3ef60405160405180910390a4611f216000838360016119cd565b5050565b6000808273ffffffffffffffffffffffffffffffffffffffff163b119050919050565b6000604051905090565b600080fd5b600080fd5b60007fffffffff0000000000000000000000000000000000000000000000000000000082169050919050565b611f9181611f5c565b8114611f9c57600080fd5b50565b600081359050611fae81611f88565b92915050565b600060208284031215611fca57611fc9611f52565b5b6000611fd884828501611f9f565b91505092915050565b60008115159050919050565b611ff681611fe1565b82525050565b60006020820190506120116000830184611fed565b92915050565b600081519050919050565b600082825260208201905092915050565b60005b83811015612051578082015181840152602081019050612036565b60008484015250505050565b6000601f19601f8301169050919050565b600061207982612017565b6120838185612022565b9350612093818560208601612033565b61209c8161205d565b840191505092915050565b600060208201905081810360008301526120c1818461206e565b905092915050565b6000819050919050565b6120dc816120c9565b81146120e757600080fd5b50565b6000813590506120f9816120d3565b92915050565b60006020828403121561211557612114611f52565b5b6000612123848285016120ea565b91505092915050565b600073ffffffffffffffffffffffffffffffffffffffff82169050919050565b60006121578261212c565b9050919050565b6121678161214c565b82525050565b6000602082019050612182600083018461215e565b92915050565b6121918161214c565b811461219c57600080fd5b50565b6000813590506121ae81612188565b92915050565b600080604083850312156121cb576121ca611f52565b5b60006121d98582860161219f565b92505060206121ea858286016120ea565b9150509250929050565b60008060006060848603121561220d5761220c611f52565b5b600061221b8682870161219f565b935050602061222c8682870161219f565b925050604061223d868287016120ea565b9150509250925092565b600080fd5b600080fd5b7f4e487b7100000000000000000000000000000000000000000000000000000000600052604160045260246000fd5b6122898261205d565b810181811067ffffffffffffffff821117156122a8576122a7612251565b5b80604052505050565b60006122bb611f48565b90506122c78282612280565b919050565b600067ffffffffffffffff8211156122e7576122e6612251565b5b6122f08261205d565b9050602081019050919050565b82818337600083830152505050565b600061231f61231a846122cc565b6122b1565b90508281526020810184848401111561233b5761233a61224c565b5b6123468482856122fd565b509392505050565b600082601f83011261236357612362612247565b5b813561237384826020860161230c565b91505092915050565b60006020828403121561239257612391611f52565b5b600082013567ffffffffffffffff8111156123b0576123af611f57565b5b6123bc8482850161234e565b91505092915050565b60006123d08261212c565b9050919050565b6123e0816123c5565b81146123eb57600080fd5b50565b6000813590506123fd816123d7565b92915050565b60006020828403121561241957612418611f52565b5b6000612427848285016123ee565b91505092915050565b60006020828403121561244657612445611f52565b5b60006124548482850161219f565b91505092915050565b612466816120c9565b82525050565b6000602082019050612481600083018461245d565b92915050565b61249081611fe1565b811461249b57600080fd5b50565b6000813590506124ad81612487565b92915050565b600080604083850312156124ca576124c9611f52565b5b60006124d88582860161219f565b92505060206124e98582860161249e565b9150509250929050565b600067ffffffffffffffff82111561250e5761250d612251565b5b6125178261205d565b9050602081019050919050565b6000612537612532846124f3565b6122b1565b9050828152602081018484840111156125535761255261224c565b5b61255e8482856122fd565b509392505050565b600082601f83011261257b5761257a612247565b5b813561258b848260208601612524565b91505092915050565b600080600080608085870312156125ae576125ad611f52565b5b60006125bc8782880161219f565b94505060206125cd8782880161219f565b93505060406125de878288016120ea565b925050606085013567ffffffffffffffff8111156125ff576125fe611f57565b5b61260b87828801612566565b91505092959194509250565b6000806040838503121561262e5761262d611f52565b5b600061263c8582860161219f565b925050602061264d8582860161219f565b9150509250929050565b7f4e487b7100000000000000000000000000000000000000000000000000000000600052602260045260246000fd5b6000600282049050600182168061269e57607f821691505b6020821081036126b1576126b0612657565b5b50919050565b7f4552433732313a20617070726f76616c20746f2063757272656e74206f776e6560008201527f7200000000000000000000000000000000000000000000000000000000000000602082015250565b6000612713602183612022565b915061271e826126b7565b604082019050919050565b6000602082019050818103600083015261274281612706565b9050919050565b7f4552433732313a20617070726f76652063616c6c6572206973206e6f7420746f60008201527f6b656e206f776e6572206f7220617070726f76656420666f7220616c6c000000602082015250565b60006127a5603d83612022565b91506127b082612749565b604082019050919050565b600060208201905081810360008301526127d481612798565b9050919050565b7f4552433732313a2063616c6c6572206973206e6f7420746f6b656e206f776e6560008201527f72206f7220617070726f76656400000000000000000000000000000000000000602082015250565b6000612837602d83612022565b9150612842826127db565b604082019050919050565b600060208201905081810360008301526128668161282a565b9050919050565b60008190508160005260206000209050919050565b60006020601f8301049050919050565b600082821b905092915050565b6000600883026128cf7fffffffffffffffffffffffffffffffffffffffffffffffffffffffffffffffff82612892565b6128d98683612892565b95508019841693508086168417925050509392505050565b6000819050919050565b600061291661291161290c846120c9565b6128f1565b6120c9565b9050919050565b6000819050919050565b612930836128fb565b61294461293c8261291d565b84845461289f565b825550505050565b600090565b61295961294c565b612964818484612927565b505050565b5b818110156129885761297d600082612951565b60018101905061296a565b5050565b601f8211156129cd5761299e8161286d565b6129a784612882565b810160208510156129b6578190505b6129ca6129c285612882565b830182612969565b50505b505050565b600082821c905092915050565b60006129f0600019846008026129d2565b1980831691505092915050565b6000612a0983836129df565b9150826002028217905092915050565b612a2282612017565b67ffffffffffffffff811115612a3b57612a3a612251565b5b612a458254612686565b612a5082828561298c565b600060209050601f831160018114612a835760008415612a71578287015190505b612a7b85826129fd565b865550612ae3565b601f198416612a918661286d565b60005b82811015612ab957848901518255600182019150602085019450602081019050612a94565b86831015612ad65784890151612ad2601f8916826129df565b8355505b6001600288020188555050505b505050505050565b7f4552433732313a20696e76616c696420746f6b656e2049440000000000000000600082015250565b6000612b21601883612022565b9150612b2c82612aeb565b602082019050919050565b60006020820190508181036000830152612b5081612b14565b9050919050565b7f4552433732313a2061646472657373207a65726f206973206e6f74206120766160008201527f6c6964206f776e65720000000000000000000000000000000000000000000000602082015250565b6000612bb3602983612022565b9150612bbe82612b57565b604082019050919050565b60006020820190508181036000830152612be281612ba6565b9050919050565b7f4d617820737570706c7920726561636865640000000000000000000000000000600082015250565b6000612c1f601283612022565b9150612c2a82612be9565b602082019050919050565b60006020820190508181036000830152612c4e81612c12565b9050919050565b7f5472616e73616374696f6e2076616c756520646964206e6f7420657175616c2060008201527f746865206d696e74207072696365000000000000000000000000000000000000602082015250565b6000612cb1602e83612022565b9150612cbc82612c55565b604082019050919050565b60006020820190508181036000830152612ce081612ca4565b9050919050565b600081905092915050565b6000612cfd82612017565b612d078185612ce7565b9350612d17818560208601612033565b80840191505092915050565b6000612d2f8285612cf2565b9150612d3b8284612cf2565b91508190509392505050565b600081519050612d56816120d3565b92915050565b600060208284031215612d7257612d71611f52565b5b6000612d8084828501612d47565b91505092915050565b7f4f776e61626c653a206e6577206f776e657220697320746865207a65726f206160008201527f6464726573730000000000000000000000000000000000000000000000000000602082015250565b6000612de5602683612022565b9150612df082612d89565b604082019050919050565b60006020820190508181036000830152612e1481612dd8565b9050919050565b7f4552433732313a207472616e736665722066726f6d20696e636f72726563742060008201527f6f776e6572000000000000000000000000000000000000000000000000000000602082015250565b6000612e77602583612022565b9150612e8282612e1b565b604082019050919050565b60006020820190508181036000830152612ea681612e6a565b9050919050565b7f4552433732313a207472616e7366657220746f20746865207a65726f2061646460008201527f7265737300000000000000000000000000000000000000000000000000000000602082015250565b6000612f09602483612022565b9150612f1482612ead565b604082019050919050565b60006020820190508181036000830152612f3881612efc565b9050919050565b7f4f776e61626c653a2063616c6c6572206973206e6f7420746865206f776e6572600082015250565b6000612f75602083612022565b9150612f8082612f3f565b602082019050919050565b60006020820190508181036000830152612fa481612f68565b9050919050565b612fb4816123c5565b82525050565b6000602082019050612fcf6000830184612fab565b92915050565b7f4552433732313a20617070726f766520746f2063616c6c657200000000000000600082015250565b600061300b601983612022565b915061301682612fd5565b602082019050919050565b6000602082019050818103600083015261303a81612ffe565b9050919050565b7f4552433732313a207472616e7366657220746f206e6f6e20455243373231526560008201527f63656976657220696d706c656d656e7465720000000000000000000000000000602082015250565b600061309d603283612022565b91506130a882613041565b604082019050919050565b600060208201905081810360008301526130cc81613090565b9050919050565b7f4e487b7100000000000000000000000000000000000000000000000000000000600052601260045260246000fd5b600081519050919050565b600082825260208201905092915050565b600061312982613102565b613133818561310d565b9350613143818560208601612033565b61314c8161205d565b840191505092915050565b600060808201905061316c600083018761215e565b613179602083018661215e565b613186604083018561245d565b8181036060830152613198818461311e565b905095945050505050565b6000815190506131b281611f88565b92915050565b6000602082840312156131ce576131cd611f52565b5b60006131dc848285016131a3565b91505092915050565b7f4552433732313a206d696e7420746f20746865207a65726f2061646472657373600082015250565b600061321b602083612022565b9150613226826131e5565b602082019050919050565b6000602082019050818103600083015261324a8161320e565b9050919050565b7f4552433732313a20746f6b656e20616c7265616479206d696e74656400000000600082015250565b6000613287601c83612022565b915061329282613251565b602082019050919050565b600060208201905081810360008301526132b68161327a565b905091905056fea26469706673582212208c767dd97eda3c716c3cd129243500e08fcdd8420051d00cc9445f60d3f97eba64736f6c63430008130033608060405234801561001057600080fd5b5061002d61002261003260201b60201c565b61003a60201b60201c565b6100fe565b600033905090565b60008060009054906101000a900473ffffffffffffffffffffffffffffffffffffffff169050816000806101000a81548173ffffffffffffffffffffffffffffffffffffffff021916908373ffffffffffffffffffffffffffffffffffffffff1602179055508173ffffffffffffffffffffffffffffffffffffffff168173ffffffffffffffffffffffffffffffffffffffff167f8be0079c531659141344cd1fd0a4f28419497f9722a3daafe3b4186f6b6457e060405160405180910390a35050565b610a948061010d6000396000f3fe6080604052600436106100555760003560e01c806351cff8d91461005a578063715018a6146100835780638da5cb5b1461009a578063e3a9db1a146100c5578063f2fde38b14610102578063f340fa011461012b575b600080fd5b34801561006657600080fd5b50610081600480360381019061007c91906106b2565b610147565b005b34801561008f57600080fd5b50610098610253565b005b3480156100a657600080fd5b506100af610267565b6040516100bc9190610700565b60405180910390f35b3480156100d157600080fd5b506100ec60048036038101906100e79190610747565b610290565b6040516100f9919061078d565b60405180910390f35b34801561010e57600080fd5b5061012960048036038101906101249190610747565b6102d9565b005b61014560048036038101906101409190610747565b61035c565b005b61014f610411565b6000600160008373ffffffffffffffffffffffffffffffffffffffff1673ffffffffffffffffffffffffffffffffffffffff1681526020019081526020016000205490506000600160008473ffffffffffffffffffffffffffffffffffffffff1673ffffffffffffffffffffffffffffffffffffffff16815260200190815260200160002081905550610201818373ffffffffffffffffffffffffffffffffffffffff1661048f90919063ffffffff16565b8173ffffffffffffffffffffffffffffffffffffffff167f7084f5476618d8e60b11ef0d7d3f06914655adb8793e28ff7f018d4c76d505d582604051610247919061078d565b60405180910390a25050565b61025b610411565b6102656000610583565b565b60008060009054906101000a900473ffffffffffffffffffffffffffffffffffffffff16905090565b6000600160008373ffffffffffffffffffffffffffffffffffffffff1673ffffffffffffffffffffffffffffffffffffffff168152602001908152602001600020549050919050565b6102e1610411565b600073ffffffffffffffffffffffffffffffffffffffff168173ffffffffffffffffffffffffffffffffffffffff1603610350576040517f08c379a00000000000000000000000000000000000000000000000000000000081526004016103479061082b565b60405180910390fd5b61035981610583565b50565b610364610411565b600034905080600160008473ffffffffffffffffffffffffffffffffffffffff1673ffffffffffffffffffffffffffffffffffffffff16815260200190815260200160002060008282546103b8919061087a565b925050819055508173ffffffffffffffffffffffffffffffffffffffff167f2da466a7b24304f47e87fa2e1e5a81b9831ce54fec19055ce277ca2f39ba42c482604051610405919061078d565b60405180910390a25050565b610419610647565b73ffffffffffffffffffffffffffffffffffffffff16610437610267565b73ffffffffffffffffffffffffffffffffffffffff161461048d576040517f08c379a0000000000000000000000000000000000000000000000000000000008152600401610484906108fa565b60405180910390fd5b565b804710156104d2576040517f08c379a00000000000000000000000000000000000000000000000000000000081526004016104c990610966565b60405180910390fd5b60008273ffffffffffffffffffffffffffffffffffffffff16826040516104f8906109b7565b60006040518083038185875af1925050503d8060008114610535576040519150601f19603f3d011682016040523d82523d6000602084013e61053a565b606091505b505090508061057e576040517f08c379a000000000000000000000000000000000000000000000000000000000815260040161057590610a3e565b60405180910390fd5b505050565b60008060009054906101000a900473ffffffffffffffffffffffffffffffffffffffff169050816000806101000a81548173ffffffffffffffffffffffffffffffffffffffff021916908373ffffffffffffffffffffffffffffffffffffffff1602179055508173ffffffffffffffffffffffffffffffffffffffff168173ffffffffffffffffffffffffffffffffffffffff167f8be0079c531659141344cd1fd0a4f28419497f9722a3daafe3b4186f6b6457e060405160405180910390a35050565b600033905090565b600080fd5b600073ffffffffffffffffffffffffffffffffffffffff82169050919050565b600061067f82610654565b9050919050565b61068f81610674565b811461069a57600080fd5b50565b6000813590506106ac81610686565b92915050565b6000602082840312156106c8576106c761064f565b5b60006106d68482850161069d565b91505092915050565b60006106ea82610654565b9050919050565b6106fa816106df565b82525050565b600060208201905061071560008301846106f1565b92915050565b610724816106df565b811461072f57600080fd5b50565b6000813590506107418161071b565b92915050565b60006020828403121561075d5761075c61064f565b5b600061076b84828501610732565b91505092915050565b6000819050919050565b61078781610774565b82525050565b60006020820190506107a2600083018461077e565b92915050565b600082825260208201905092915050565b7f4f776e61626c653a206e6577206f776e657220697320746865207a65726f206160008201527f6464726573730000000000000000000000000000000000000000000000000000602082015250565b60006108156026836107a8565b9150610820826107b9565b604082019050919050565b6000602082019050818103600083015261084481610808565b9050919050565b7f4e487b7100000000000000000000000000000000000000000000000000000000600052601160045260246000fd5b600061088582610774565b915061089083610774565b92508282019050808211156108a8576108a761084b565b5b92915050565b7f4f776e61626c653a2063616c6c6572206973206e6f7420746865206f776e6572600082015250565b60006108e46020836107a8565b91506108ef826108ae565b602082019050919050565b60006020820190508181036000830152610913816108d7565b9050919050565b7f416464726573733a20696e73756666696369656e742062616c616e6365000000600082015250565b6000610950601d836107a8565b915061095b8261091a565b602082019050919050565b6000602082019050818103600083015261097f81610943565b9050919050565b600081905092915050565b50565b60006109a1600083610986565b91506109ac82610991565b600082019050919050565b60006109c282610994565b9150819050919050565b7f416464726573733a20756e61626c6520746f2073656e642076616c75652c207260008201527f6563697069656e74206d61792068617665207265766572746564000000000000602082015250565b6000610a28603a836107a8565b9150610a33826109cc565b604082019050919050565b60006020820190508181036000830152610a5781610a1b565b905091905056fea26469706673582212205090fae0543ac3371adf32d56523299e800bc79a07af21b01bd0a5143c723b0664736f6c63430008130033",
  "linkReferences": {},
  "deployedLinkReferences": {}
}